S011000042617265626F6E65732E7372656382
S31500000000B8970020B9120000E5100000B5120000F4
S31500000010B5120000B5120000B5120000B5120000BE
S3150000002000000000000000000000000025040000A1
S31500000030B5120000000000003D040000A504000009
S31500000040250700005507000089070000A9070000E2
S31500000050C9070000F90700001908000000000000A9
S31500000060000000000000000000000000000000008A
S31500000070000000000000000000000000000000007A
S31500000080000000000000000000000000000000006A
S31500000090000000000000000000000000000000005A
S315000000A0000000000000000000000000000000004A
S315000000B0000000000000000000000000000000003A
S315000000C0000000000000000000000000000000002A
S315000000D0000000000000000000000000000000001A
S315000000E0000000000000000000000000000000000A
S315000000F000000000000000000000000000000000FA
S3150000010000000000000000000000000000000000E9
S3150000011000000000000000000000000000000000D9
S3150000012000000000000000000000000000000000C9
S3150000013000000000000000000000000000000000B9
S3150000014000000000000000000000000000000000A9
S315000001500000000000000000000000000000000099
S315000001600000000000000000000000000000000089
S315000001700000000000000000000000000000000079
S315000001800000000000000000000000000000000069
S315000001900000000000000000000000000000000059
S315000001A00000000000000000000000000000000049
S315000001B00000000000000000000000000000000039
S315000001C0FFFFFFFFFFFFFFFFFFFFFFFFFFFFFFFF39
S315000001D0FFFFFFFFFFFFFFFFFFFFFFFFFFFFFFFF29
S315000001E0FFFFFFFFFFFFFFFFFFFFFFFFFFFFFFFF19
S315000001F0FFFFFFFFFFFFFFFFFFFFFFFFFFFFFFFF09
S3150000020010B5054C237833B9044B13B1044800E00C
S3150000021000BF0123237010BDC800002000000000AD
S315000002201054000008B5034B1BB10349034800E016
S3150000023000BF08BD00000000CC00002010540000E4
S31500000240022800D07047024B0248596800F0E0BD12
S3150000025048490000E400002038B51B4B9D681C6827
S31500000260EB6901220721204698470122EB691146D6
S3150000027020469847EB69012240F2026120469847E2
S315000002804FF4FA7002F012FAEB69002207212046B9
S3150000029098474FF4967002F009FAEB6900220121A3
S315000002A0204698474FF4967002F000FA002240F27A
S315000002B00261EB69204698474FF4967002F0F6F912
S315000002C0012002F0F3F9CBE748490000704700BF70
S315000002D0FFF7FCBF00BE704738B5164C4FF0FF3134
S315000002E0206801F0F9FC012803D000212068FFF7FF
S315000002F0F1FF114B1A7802B138BD01220F4D1A7069
S31500000300FFF7E6FF2B68013B2B60002BF4D00023A0
S31500000310206819461A4601F0DDFA0128F2D00021BC
S315000003202068FFF7D7FF2B68013B2B60002BEED12F
S3150000033038BD00BFF0000020EC0000203C0100208A
S3150000034038B500230B4D0C4C01214FF480700B4A3D
S315000003502B60237001F080FA094B186028B100F079
S3150000036039F802F081F8002038BD0146FFF7B2FFE8
S31500000370F5E700BF3C010020EC000020F40000205F
S31500000380F0000020802330B4034D044C05600C605F
S31500000390136030BC704700BF4005002040010020BC
S315000003A0802330B4034D044C05600C60136030BCF0
S315000003B0704700BFA00500204003002000B583B0B1
S315000003C00190FFF789FF019803B05DF804EBFFF792
S315000003D043BF00BF30B501250C480D4C036883B000
S315000003E0591901944FF4807201600A4B0A490B486F
S315000003F0009502F007F8A84201D103B030BD0021F4
S31500000400206803B0BDE83040FFF764BF3C01002020
S31500000410000600206049000054490000BD030000AA
S3150000042000BEFEE71EF0040F0CBFEFF30880EFF3EB
S315000004300980014908470000C90400000F4B1968EC
S31500000440EFF309821EF0100F08BF22ED108A22E991
S31500000450F04FEFF30B8342F8043D0A604FF01000B3
S3150000046080F31188BFF34F8FBFF36F8F02F05CF9F3
S315000004704FF0000080F3118800F002B808910020C8
S31500000480074801680A6802CA81F30B88B2E8F04F90
S315000004901EF0100F08BFB2EC108A82F3098870476D
S315000004A00891002010B5EFF31184102383F311880F
S315000004B002F02AF918B14FF08052024B5A6084F3C9
S315000004C0118810BD00ED00E008B5836913F8023C01
S315000004D0022B02D0032B04D808BDBDE80840FFF765
S315000004E0CFBF40F20541024B024A034800F0BEFD71
S315000004F05C4A00001C4B0000704A000070B440F8D3
S31500000500203C4FF080756FF002040346084E2831F8
S3150000051022F0010240F80C6C40F8045C40F8244CD0
S3150000052040F8082C43F8481D184670BC704700BFB9
S315000005302104000008B5EFF31181102383F311881D
S315000005400A4A13680133012B136000D008BD084A1C
S31500000550084B11605B68C3F30803002BF6D040F22A
S31500000560F641054B054A064800F080FD08060020C6
S315000005700406002000ED00E0984A0000084B000049
S31500000580704A0000094A08B513683BB1013B136085
S315000005901BB9074B1B6883F3118808BD40F2FF4166
S315000005A0044B054A054800F061FD00BF080600201F
S315000005B004060020E04A0000F44A0000704A0000E9
S315000005C000B3194A00B5938918B2002899B21ADB0C
S315000005D0BFF34F8F30BFBFF36F8F62B6BFF36F8F1E
S315000005E072B600280CDA4AF202500F4AB2F8FE330D
S315000005F0A2F8FE039BB243F425439181A2F8FE3391
S315000006005DF804FB70474AF2025E4FF0000CB2F848
S31500000610FE33A2F8FEE39BB243F42543A2F80CC0D6
S31500000620A2F8FE33D4E700BF00E0014008B572B679
S3150000063001F060FF0120FFF7C3FF62B6BDE8084086
S3150000064001F060BF0D4B0E4A1B68A2FB03239B09FA
S31500000650013BB3F1807F0FD24FF0E0224FF0F00C58
S315000006600020072110B4074C536184F823C05DF8BD
S31500000670044B906111617047704700BF94100020D1
S31500000680D34D621000ED00E0F02208B50B4B83F865
S315000006902220FFF7D7FF0A4A536B43F040435363C8
S315000006A062B6BFF36F8FEFF3148C2CF0040C8CF34F
S315000006B01488BFF36F8F02DF00BEFDE700ED00E098
S315000006C000EF00E0EFF30383103B5BB2002B05DB8A
S315000006D003F1604303F5614393F80033704700BFAD
S315000006E020B9054BB3F8400080B27047034BB3F80E
S315000006F0400080B2704700BF000009400010114062
S31500000700012807D1044AB2F802319BB243F4804370
S31500000710A2F80231704700BF00101140012100F01D
S31500000720ADBC00BFEFF30383103B084A5BB2C03396
S3150000073052F8231006486FF3104142F8231003883D
S315000007409BB2012B00D1704700F0C6B90060004093
S31500000750C00E002010B4EFF30383103B084A5BB2CF
S3150000076003F1C00152F82100064C6FF3104042F825
S31500000770210054F823305DF8044B987800F066B9F0
S3150000078000600040080F0020EFF30383103B054A8A
S315000007905BB2C03352F823106FF3104142F82310B6
S315000007A0704700BF00600040EFF30383103B054A2B
S315000007B05BB2C03352F823106FF3104142F8231096
S315000007C0704700BF00600040EFF30383103B084A08
S315000007D05BB2C03352F8231006486FF3104142F85B
S315000007E0231043889BB2012B00D1704700F074B9E7
S315000007F000600040C00E0020EFF30383103B054A63
S315000008005BB2C03352F823106FF3104142F8231045
S31500000810704700BF00600040EFF30383103B054ABA
S315000008205BB2C03352F823106FF3104142F8231025
S31500000830704700BF006000402DE9F043012A0CBF5D
S31500000840784B794B0446B3F840E0B3F84660B3F80A
S315000008504880B3F84A70B3F830C0D88E1D8F5B8FCE
S315000008601FFA85F99DB200231FFA8EFE1EF47F4FF4
S31500000870238083B0B6B21FFA88F8BFB21FFA8CFC89
S3150000088080B20B800ED00EEA0C0313F4804F0CD00E
S31500000890012A4BF6FF720CBF624B634BA3F8402054
S315000008A01223238003B0BDE8F08313F4004F0DD16B
S315000008B013F4005F17D0012A4DF6FF720CBF594B97
S315000008C0594BA3F8402013232380EBE7012A47F670
S315000008D0FF720CBF534B544BA3F8402011232380C7
S315000008E003B0BDE8F08313F4805F12D1304013F4F7
S315000008F080761BD010F0010F18D0012A40F2FE328C
S315000009000CBF484B484BA3F84620012323800B809D
S31500000910C8E7012A4EF6FF720CBF424B424BA3F8C2
S31500000920402014232380A1F800E0BBE713F4806C79
S3150000093007EA05070ED0FD070CD5012A40F2FE3264
S315000009400CBF384B384BA3F84A20022201232280E1
S315000009500B80A7E713F4007E08EA09050FD015F00F
S31500000960010F0CD0012A40F2FE320CBF2D4B2E4B4C
S31500000970A3F848200322012322800B8092E71B055F
S315000009801DD466B1C343012A0CBF264A264AC3F3C7
S315000009900903A2F8463001232380088082E7BCF1D0
S315000009A0000F2DD0FB43012A0CBF1E4A1E4AC3F37B
S315000009B00903A2F84A30022323800F8072E710460B
S315000009C001910092FFF78CFE0199009A08804FF280
S315000009D0FF70012A0CBF134B134BA3F840001523DD
S315000009E023800B8803F00703062B7FF45BAF1046CA
S315000009F0009100F03BF80023009923800B8051E71B
S31500000A00BEF1000F3FF44EAFEB43012A0CBF054A7F
S31500000A10054AC3F30903A2F84830032323800D8057
S31500000A2040E700BF001011400000094010B5064C19
S31500000A30238803B910BDFFF763FE6420FFF76EFE3F
S31500000A400023238010BD00BF0C0600204BF6FF726A
S31500000A5018B9044BA3F840207047034BA3F8402075
S31500000A60704700BF00000940001011404FF6F772B2
S31500000A7018B9044BA3F840207047034BA3F8402055
S31500000A80704700BF000009400010114010B5002457
S31500000A9084B00191039451B10D4A234652F82010B7
S31500000AA003AA086801A900F0E1FF012802D0FF208F
S31500000AB004B010BD03980028FAD04FF08052054BC1
S31500000AC05A60BFF34F8FBFF36F8F204604B010BD3F
S31500000AD00000002000ED00E0164AF8B51688731CE9
S31500000AE003F01F0313803401EFF30383124A103B14
S31500000AF05BB252F82350A878FFF798FF40F25112E4
S31500000B000E4BA01903EB8004D5E909672284AA7865
S31500000B10800000F12801223018441944E76384F864
S31500000B202420A663FFF788FE2146BDE8F84005208D
S31500000B30FFF7ACBF3C060020080F0020400600204F
S31500000B400022034610461A60704700BF0B0A10B415
S31500000B501B01064C53FA81F154F821300020C3F3EF
S31500000B6040035DF8044B1370704700BF000808404F
S31500000B70090A490101F1804101F500214B68002075
S31500000B8013807047090A490123EA020C01F18041EA
S31500000B901A4001F5002142EA0C4200208A607047A3
S31500000BA00123C8B283404AB91A040B0A5B0103F158
S31500000BB0804303F5002300209A6070479AB2F4E759
S31500000BC0090A490101F1804101F5002110B40C68C0
S31500000BD002EA030C4CEA040C62EA030202EA0C0283
S31500000BE000205DF8044B0A60704700BF090A4901FE
S31500000BF001F1804101F500214B680020C3F30F434A
S31500000C0013807047012310B44FEA112C4FEA4C1C95
S31500000C100CF1804C0CF5002CDCF80440C9B203FA48
S31500000C2001F18BB201EA1441C91AB1FA81F14909FD
S31500000C3000205DF8044B1170704700BF090A490196
S31500000C4023EA020C01F180411A4001F5002142EA33
S31500000C500C420020CA607047012A14D04FF480303D
S31500000C600B0A5B0103F1804303F5002310B4CAB2FB
S31500000C70DC6800FA02F22243120C120400205DF82E
S31500000C80044BDA6070470B0A5B0103F1804303F5FE
S31500000C900023D868C9B28A40024392B20020DA60C3
S31500000CA0704700BF38B50488002C4CD0002143683B
S31500000CB040F20245043303EBC40040F2034C40F219
S31500000CC0044E0C460FE062452FD153F8042C02F077
S31500000CD0B852B2F1807F14BF41F0020144F0020421
S31500000CE00833834210D01A88AA42ECD153F8042C58
S31500000CF0083302F0B852B2F1807F14BF41F001010F
S31500000D0044F001048342EED1C943CDB2012000F084
S31500000D1085FA0E4B012093F8BB2414432C4083F82C
S31500000D20BB44BDE8384000F049BA7245D8D153F803
S31500000D30042C02F0B852B2F1807F0CBF44F00404D8
S31500000D4041F00401CCE7FF25E0E700BF00E00140E9
S31500000D50F8B50446FFF7A6FFEFF31082012383F3ED
S31500000D601088284E33681BB92749CB704023CB70B7
S31500000D7033680133336082F3108823887BB362685B
S31500000D8003F1FF3E1FFA8EFE02F108011F4C01EB34
S31500000D90CE0E08E0D2B21B0113448E450A4644F833
S31500000DA023001CD008311068928810F4803F4FEA67
S31500000DB01223EFD0130AD2B202EB031C54F82C70A4
S31500000DC01B01134420F480356FF310478E4544F819
S31500000DD02C700A4644F82C5044F82300E2D1EFF375
S31500000DE01082012383F31088336813B13368013B03
S31500000DF0336033681BB980200349CB70C87082F317
S31500000E001088F8BD040F0020000D084000080840B7
S31500000E1008B5034B03600846FFF79AFF002008BD9C
S31500000E2054524F5008B50846FFF792FF002008BD00
S31500000E3070B5012684B002AB68460C461546019390
S31500000E40ADF80060ADF80C100292FFF72BFFEFF340
S31500000E50108286F310881D490B681BB940261C4872
S31500000E60C370C6700B6801330B6082F31088EA0307
S31500000E704FEA1423E4B219D41B01164A234442F85C
S31500000E802350EFF31082012383F310880B6813B10C
S31500000E900B68013B0B600B681BB980200C49CB70BB
S31500000EA0C87082F31088002004B070BD094A04EBB4
S31500000EB0031052F820601B016FF3104642F82060C1
S31500000EC025F4803642F82060D7E700BF040F0020E3
S31500000ED0000D084000080840064B074993F8260015
S31500000EE01A6A51F82030C2F302620449D3400B60FB
S31500000EF0704700BF00E00140A800002094100020C9
S31500000F00F8B54AF2035001234C494D4AA1F8FE03B5
S31500000F10A2F80431B2F804319BB2002BFAD10121B8
S31500000F204FF400454FF0090C464CDFF834E1464ECD
S31500000F30C4F804E0DFF82CE14048C4F80CE0A2F85D
S31500000F400011B160414A3160A5602561404D414FB5
S31500000F50C4E90552276090F82620056A54F8222035
S31500000F60C5F30265EA403C4D2A6080F8133480F8E8
S31500000F70A2C090F88034002B58D000232F4A82F864
S31500000F80813482F8803482F8363092F83C30D907C2
S31500000F90FBD50023294982F8323091F83C301A07F4
S31500000FA0FBD5002342F6117643F20200234AA1F84C
S31500000FB0486081F84A30088581F82A3092F83C303A
S31500000FC09B06FBD5032005211D4B83F81C01012040
S31500000FD0224B82F82610136292F82630116A54F8D2
S31500000FE02330C1F30261CB402B6082F8300082F8D7
S31500000FF0520092F87430114943F0400382F874307D
S3150000100091F87430DB09FBD0062346200B4A81F8A1
S315000010106C3081F8740081F8743092F87430DB0912
S31500001020FBD14FF42543A2F8FE33F8BD80F88014B7
S3150000103040F2C44000F022F89FE700BF00E0014004
S3150000104000C00140A800002000700040001C4E0EA9
S3150000105000B9AE0B002D31019410002021120120A1
S3150000106000127A0000366E01704700BF00BEFEE730
S31500001070A0F101000028FBD1704700BF10B54FF466
S315000010807A72164C164B24684FF0000EB3FBF4FC34
S315000010904FF0FF3300FB01F1A1FB020483427EEB1C
S315000010A0040407D3B0FBFCF0800880B1BDE8104013
S315000010B0FFF7DEBF4FEA8C0CB1FBFCF1A1FB02127D
S315000010C08B427EEB020203D308460028EED110BD08
S315000010D01846BDE81040FFF7CBBF00BF94100020B4
S315000010E000CA9A3B70B500240A4B0B4EB3F8405128
S315000010F0ADB225FA04F3DB07E0B203D556F8243087
S3150000110003B198470134102CF3D1024BA3F83051A8
S3150000111070BD00BF00600040C40E002030B56FF007
S31500001120FF0585B0032000F079F84FF0FF311F4C22
S315000011301F482246856400230125CDE9011103914C
S3150000114004F1C00E32F8020F590960B104A800EB91
S31500001150810151F80C0C03F01F0C05FA0CFC20EA77
S315000011600C0041F80C0C724503F10103EAD1019918
S31500001170104B0F4A03201167C3F88012029951677A
S31500001180C3F8841203999167C3F8881200F016F821
S315000011900023094803F1C00234F8021F0133602B13
S315000011A040F82210F6D105B030BD00BF9A490000C4
S315000011B00080004000E100E000600040EFF3108195
S315000011C0012383F31088124B33F8102092B22AB110
S315000011D033F81020013A92B223F8102033F8103079
S315000011E09BB293B90B4A10B4B2F8FE330A4C9BB2C9
S315000011F034F8100043F4254323EA0003A2F8FE3333
S3150000120081F310885DF8044B704781F310887047AE
S315000012108810002000E00140644B000030B4EFF37A
S315000012201081012383F310880E4A32F810309BB2E6
S315000012306BB90D4C0D4DB4F8FE3335F810C09BB2AA
S3150000124043EA0C0343F425439BB2A4F8FE3332F879
S31500001250103001339BB222F8103081F3108830BC75
S31500001260704700BF8810002000E00140644B00007A
S315000012700D4908B50A6803464AB103330B4823F003
S3150000128003031344834206D810460B6008BD084882
S3150000129002460860F1E702F039FD0C234FF0FF32F9
S315000012A00360104608BD00BF90100020B8930020D0
S315000012B0B893002000BE704708B500F003F8FFF7AA
S315000012C03FF8FEE74FF47001234B244A70B5002027
S315000012D0C3F888109A60FEF7B3FFFFF711FE0120EE
S315000012E0FEF7AEFF1E4B83F30A881E481E4A0021F6
S315000012F0121A02F01EFD1D481D4A1E49121A02F05E
S315000013000BFD1D4D1D4B5B1B002B07DD00249E10A6
S3150000131055F8043B01349847A642F9DCFFF7DCFD9B
S315000013200320FFF77BFF00234FF6FF70144903F1FC
S3150000133008020133092B21F81200F8D10320FFF728
S315000013403DFF0220FEF77CFFFFF7E8FEBDE8704098
S315000013500020FFF789BE00BF00ED00E0000000009E
S31500001360B8930020C8000020B4930020000000209D
S31500001370A8000020F4540000A0000020A4000020D3
S31500001380000D084010B4164B1A461B688342FBD367
S31500001390516802EB010C60450BD0416800EB010C73
S315000013A063450ED0904203605DF8044B18BF106091
S315000013B0704744681046214400EB010C63455160B8
S315000013C0F0D1084C2468A342ECD0D3E90034904213
S315000013D02144C0E900315DF8044B18BF1060704726
S315000013E0B0900020981000202DE9F041044601F04D
S315000013F081F842480368002B59D0414B1E6834429D
S3150000140048D1631E0A3345D804F10801640747D161
S31500001410DFF80C81D8F800708F423BD3394B9C46DD
S315000014201C6803E0236823B1A4461C4662688A420E
S31500001430F8D30368A3422DD02368DCF80050CCF81B
S315000014400030531A102B05F1080507D9601842071A
S315000014504ED143606160FFF795FF62682A4BBF1A61
S31500001460196832438F424FF000016260274A38BF45
S315000014701F601368216001331360C8F8007001F023
S3150000148041F86B0709D04FF48871214B214A224855
S31500001490FFF7ECFD01F036F800252846BDE8F0819F
S315000014A021F0070308338B42F4D91946B0E71B4BEA
S315000014B000215D070EBF1A46DA1D22F00702154607
S315000014C04FF0004703F50043083B23F007030D4E9A
S315000014D09A1AC6E900510360C3E90011C5E9003252
S315000014E0094B3E461A600E4B1A60054B1F6086E795
S315000014F0CF210C4B074A0848FFF7B8FD981000208B
S315000015009C900020B0900020A4900020A89000207D
S31500001510E04B0000844C0000A04B00009C10002013
S31500001520A09000206C4B000018B3194A38B5126819
S3150000153050F8043C04461342A0F1080521D050F8A7
S31500001540081CB9B923EA020340F8043C00F0D2FFB4
S31500001550104A54F8043C116828460B441360FFF700
S3150000156011FF0D4A136801331360BDE8384000F0DF
S31500001570C9BF704740F22511084B094A0948FFF7D1
S3150000158075FD4FF49271084B054A0648FFF76EFD4C
S315000015909C900020A0900020AC900020504C0000B1
S315000015A0784C0000A04B00001C4C00004FF0FF31AF
S315000015B0002200F10803C0E90131C0E903330260EB
S315000015C0704700BF00230361704700BF30B40D6849
S315000015D06B1C10D000F108031C465B681A68AA420F
S315000015E0FAD902684B60013299608C6061600861CB
S315000015F030BC0260704704696368F2E7036910B49F
S31500001600D0E901125C688A6051600021844208BFFB
S315000016105A601A680161013A1A6018685DF8044B4D
S31500001620704700BF70B51646026C0446856B52B112
S315000016306EB9406802F070FB6368216CA2680B44C7
S315000016409342636017D201350020A56370BDC06860
S3150000165002F062FB226CE36851429B1A2268E36047
S31500001660934202D2A3680B44E360022EEBD1012D14
S3150000167038BF0125E8E72368013500206360A563CC
S3150000168070BD00BF70B50546FEF754FF95F84530AE
S315000016905CB2002C14DD05F1240603E0631EDAB209
S315000016A05CB26AB16B6A5BB1304601F0D5F80028CE
S315000016B0F4D001F09DF9631EDAB25CB2002AF1D1D2
S315000016C0FF2385F84530FEF75DFFFEF733FF95F8FB
S315000016D044305CB2002C14DD05F1100603E0631EF5
S315000016E0DAB25CB26AB12B695BB1304601F0B4F88C
S315000016F00028F4D001F07CF9631EDAB25CB2002A4D
S31500001700F1D1FF2385F84430BDE87040FEF73ABFBB
S3150000171070B5002848D0C36B0446002B3DD0056C3D
S31500001720A5FB0335002D38D10E46FEF703FFD4E99D
S315000017300F30A563FF2500FB03F32268181A6260C9
S315000017401344024484F84450C4E9023284F84550F4
S31500001750BEB923691BB9FEF715FF012070BD04F160
S31500001760100001F079F80028F5D04FF08052124BA6
S315000017705A60BFF34F8FBFF36F8FFEF703FF012051
S3150000178070BD04F11000FFF711FF04F12400FFF70C
S315000017900DFFFEF7F7FE012070BD40F24511074B25
S315000017A0074A0848FFF762FC4FF48871064B044A63
S315000017B00448FFF75BFC00BF00ED00E0D04C0000E2
S315000017C0E04F00009C4C0000C84C000030B583B0D0
S315000017D053B310B30D461C469AB1F1B14823019399
S315000017E0019B482B27D10123019984F84630E063F9
S315000017F00121204622602564FFF78AFF204603B0B8
S3150000180030BD51B948230193019B482B13D10123C5
S315000018102246019984F84630E9E74FF4C171094B35
S31500001820094A0A48FFF722FC40F25911084B064ABA
S315000018300648FFF71BFC40F26B11064B024A0348B1
S31500001840FFF714FC204D0000C44F00009C4C000024
S31500001850F44C0000044D000030B583B0C0B188429E
S315000018600D4615D314460AB348230193019B482B12
S3150000187015D1012100232260D063204684F846104A
S315000018802364019AFFF744FF2046A56303B030BDE9
S315000018904FF43E71094B0A4A0A48FFF7E7FB40F24C
S315000018A06B11094B094A0748FFF7E0FB40F2591153
S315000018B0074B064A0348FFF7D9FB00BF2C4D000033
S315000018C08C4F00009C4C0000044D0000C44F0000EB
S315000018D0F44C00002DE9F04784B00192002800F096
S315000018E0A880044689461F46002900F08880022FFA
S315000018F003D1E36B012B40F0A38001F07FF805468E
S31500001900002851D000254FF00008DFF850A107E06D
S31500001910FEF738FE2046FFF7B5FE00F0F3FD012581
S31500001920FEF708FEA36BE06B83424BD3022F49D030
S31500001930019E002E6ED0002D40D0FEF723FE00F053
S31500001940D9FDFEF7F7FD94F84430FF2B08BF84F865
S31500001950448094F84530FF2B08BF84F84580FEF795
S3150000196011FE02A801A900F0F9FF002858D1FEF7E0
S31500001970E1FDA26BE36B9A42CAD1FEF703FE019921
S3150000198004F1100000F018FF2046FFF77BFE00F080
S31500001990B9FD0028C3D14FF08053CAF80430BFF315
S315000019A04F8FBFF36F8FBAE7019B002BABD040F28E
S315000019B03331274B274A2848FFF758FB02A800F087
S315000019C0C1FFBAE73A4649462046FFF72BFE636A4F
S315000019D033B958B9FEF7D6FD012004B0BDE8F0874B
S315000019E004F1240000F038FF0028F3D04FF08052B5
S315000019F01A4B5A60BFF34F8FBFF36F8FEAE7036C42
S31500001A00002B3FF474AF40F22F31154B114A1248A8
S31500001A10FFF72CFBFEF7B6FD304604B0BDE8F087B5
S31500001A202046FFF72FFE00F06DFD002004B0BDE854
S31500001A30F08740F22E310B4B064A0748FFF716FB9C
S31500001A404FF44C71084B034A0348FFF70FFB00BFE6
S31500001A50DC4D0000784F00009C4C000000ED00E0DB
S31500001A60344D0000C84C00008C4D00002DE9F041BB
S31500001A7000284ED004460E4617461D4661B3022D79
S31500001A8002D1E36B012B4BD1FEF71CFEEFF311885D
S31500001A90102383F31188A26BE36B9A4206D3022DBF
S31500001AA004D0002088F31188BDE8F0812A4694F816
S31500001AB04550314620466DB2A36BFFF7B3FD6B1C54
S31500001AC014D07F2D33D001356DB2012084F84550F6
S31500001AD088F31188BDE8F081036C002BCFD040F26B
S31500001AE00341164B164A1748FFF7C0FA636A23B933
S31500001AF0012088F31188BDE8F08104F1240000F08C
S31500001B00ABFE0028F4D0002FF2D0012318463B602C
S31500001B10C8E740F202410C4B094A0A48FFF7A6FA09
S31500001B2040F20441094B064A0648FFF79FFA40F285
S31500001B308D41074B024A0348FFF798FA344D0000DF
S31500001B405C4F00009C4C0000C84C00008C4D00000F
S31500001B50304E00002DE9F04385B00192002800F0D8
S31500001B60A88004460E46002972D000F047FF0028E0
S31500001B705BD0FEF7DFFCA56B002D73D1019B002B1C
S31500001B8038D002A800F0DEFE2F46DFF8449104F1BB
S31500001B902408FEF7F7FC00F0ADFCFEF7CBFC94F84A
S31500001BA04430FF2B08BF84F8447094F84530FF2B6F
S31500001BB008BF84F84570FEF7E5FC01A902A800F00D
S31500001BC0CDFEE8B9FEF7B6FCA36B33BBFEF7DAFC35
S31500001BD04046019900F0F0FD2046FFF753FD00F066
S31500001BE091FC60B3FEF7A6FCA56B002D3AD1019BD4
S31500001BF0002BCED1FEF7C6FC002005B0BDE8F08371
S31500001C002046FFF73FFD00F07DFCFEF793FCA36B3B
S31500001C10002BEFD0FEF7B6FCE4E7FEF7B3FC204658
S31500001C20FFF730FD00F06EFCDCE7019B002BA0D037
S31500001C3040F25A51224B234A2348FFF717FA4FF036
S31500001C408053C9F80430BFF34F8FBFF36F8FC9E7D6
S31500001C50036C002B89D040F255511C4B194A1A4887
S31500001C60FFF704FA226C5AB1E168A368114499425D
S31500001C70E16028BF2168304628BFE16002F04CF8D9
S31500001C80013DA56323692BB9FEF77CFC012005B055
S31500001C90BDE8F08304F1100000F0DEFD0028F3D06B
S31500001CA04FF080520A4B5A60BFF34F8FBFF36F8FCE
S31500001CB0EAE740F25151074B024A0348FFF7D6F9CB
S31500001CC0DC4D00004C4F00009C4C0000DC4E000038
S31500001CD000ED00E0D04E00002DE9F04184B0019106
S31500001CE0002800F09C80036C0446002B40F0908096
S31500001CF000F084FE002869D0FEF71CFCA56B002DC1
S31500001D005AD1019B002B38D002A800F01BFE2E46AC
S31500001D10DFF8248104F12407FEF734FC00F0EAFB27
S31500001D20FEF708FC94F84430FF2B08BF84F84460A3
S31500001D3094F84530FF2B08BF84F84560FEF722FC77
S31500001D4001A902A800F00AFEE8B9FEF7F3FBA36BAF
S31500001D5033BBFEF717FC3846019900F02DFD2046EF
S31500001D60FFF790FC00F0CEFB002839D0FEF7E2FB2F
S31500001D70A56B0DBB019B002BCED1FEF703FC00200B
S31500001D8004B0BDE8F0812046FFF77CFC00F0BAFB0A
S31500001D90FEF7D0FBA36B002BEFD0FEF7F3FBE5E7D6
S31500001DA0FEF7F0FB2046FFF76DFC00F0ABFBFEF7FD
S31500001DB0C1FBA56B002DDDD0013DA5632369C3B929
S31500001DC0FEF7E0FB012004B0BDE8F081019B002B8B
S31500001DD092D040F2EC51154B154A1648FFF746F9DA
S31500001DE04FF08053C8F80430BFF34F8FBFF36F8FA7
S31500001DF0BCE704F1100000F02FFD0028E0D04FF002
S31500001E0080520D4B5A60BFF34F8FBFF36F8FD7E7EA
S31500001E1040F2E751094B064A0648FFF727F940F218
S31500001E20E351074B024A0348FFF720F9DC4D000057
S31500001E30384F00009C4C000000ED00E0504E0000C2
S31500001E40D04E000038B530B379B100252B46154C7D
S31500001E5004EBC30252684FEAC30C824213D02DB181
S31500001E6001330A2BF4D1C5E9001038BD54F83320EC
S31500001E7072B101330A2BF8D004EBC30252684FEA61
S31500001E80C30C9042F2D104EB0C05C5E90010ECE757
S31500001E9004EB0C05E4E740F6C821034B034A04486B
S31500001EA0FFF7E4F8B8900020944C0000B04F000013
S31500001EB09C4C000070B504460E461546FEF73AFBEC
S31500001EC094F84430FF2B04BF002384F8443094F880
S31500001ED04530FF2B04BF002384F84530FEF752FB44
S31500001EE0A36B23B12046BDE87040FFF7CBBB04F1DE
S31500001EF024002A46314600F07DFC2046BDE87040AD
S31500001F00FFF7C0BB2DE9F8430446FEF713FB3B4A37
S31500001F103B4E1368013313603368002B3FD0394FB3
S31500001F203B68002B33D0E36A374D384938480A6896
S31500001F3004F1040E01320A6002689A4238BF036057
S31500001F4003EB830305EB830042689B009168A26064
S31500001F50E160E95801F1010C9168C1F804E0C2F8AA
S31500001F6008E0606145F803C0FEF70CFB3B6863B10F
S31500001F703268E36AD26A9A4207D24FF08052254B02
S31500001F805A60BFF34F8FBFF36F8FBDE8F883326897
S31500001F90E36AD26A1C4D9A4298BF3460C5E7346042
S31500001FA01368012B03D0E36A174D164FBDE7164D94
S31500001FB02F4605F1640838461437FFF7F7FAB84597
S31500001FC0F9D1DFF86890DFF868804846FFF7EEFA47
S31500001FD04046FFF7EBFA1048FFF7E8FA0F48FFF71D
S31500001FE0E5FA0F48FFF7E2FA0E4B064FC3F80090EA
S31500001FF00D4BC3F80080E36A97E700BF7891002095
S3150000200008910020D4910020149100208491002092
S315000020108891002000ED00E0C0910020EC910020A6
S31500002020D89100200C910020109100208C91002066
S31500002030A0910020F8B505461B4B1C4E1C68306865
S315000020400F460430FFF7DAFA6B1C17D033686419B1
S315000020505C6007D3164B18683168BDE8F840043158
S31500002060FFF7B4BA134B186831680431FFF7AEFABC
S31500002070114B1A68A24288BF1C60F8BD002FE5D03C
S315000020800E4B30685A68316882609068C860316863
S315000020909068043141603068346819680430013151
S315000020A0906019606361F8BD0092002008910020DD
S315000020B0109100200C910020B4910020D8910020AE
S315000020C02DE9F04702F18042DDE90974266B013AF9
S315000020D006EB820681469A46DDF8208026F0070642
S315000020E0A1B301F1FF3C01F10F0504F1330E1CF918
S315000020F0011F0EF8011F09B1AC45F8D1002384F881
S315000021004330B8F1040F24D80025201DC4F82C80D4
S31500002110FFF758FA04F11800FFF754FAC8F105035F
S31500002120A3614A4653463046216B24616462656466
S31500002130A564E56425656565A56584F85C50FEF7CC
S31500002140DDF9206007B13C60BDE8F08784F8341003
S31500002150D7E740F29731024B024A0348FEF786FF63
S315000021602850000094520000FC4F00004FF08058A9
S3150000217080B5204C204E214DDFF890A0DFF89090DE
S3150000218023682BB3FEF7D6F9F368DF68381DFFF72F
S3150000219035FA2B68013B2B602368013B2360FEF771
S315000021A0F1F997F85D3053B1012B1ED0022BE7D021
S315000021B040F69C71124B134A1348FEF757FF386BD3
S315000021C0FFF7B2F93846FFF7AFF92368002BD9D1EC
S315000021D0DAF80030012B05D9C9F80480BFF34F8F18
S315000021E0BFF36F8FFEF722FACAE73846FFF79CF96E
S315000021F0C6E700BF7C910020EC910020789100207A
S315000022003C50000084520000FC4F00001491002056
S3150000221000ED00E02DE9F04F504B83B01E6801360B
S315000022201E60002E6FD04E4B0193019B1B689E4291
S3150000223060D34C4F3B68186800287BD00020B2461C
S3150000224086468146DFF83C81474DDFF83CB147E0E2
S315000022505A69D3E902148C6061605168181D814285
S31500002260116808BF54600139C3F814E011609A6A16
S315000022707AB1D3E90741A1601E6A5168746003F11F
S315000022801804A142116808BF56600139C3F828E056
S315000022901160DA6AD8F8001002EB820405EB840CB0
S315000022A08A42DCF8041088BFC8F800208E6899605E
S315000022B0DE6055F82460013600968E68706088608E
S315000022C0C3F814C0009B45F82430DBF800103B68C7
S315000022D0C96A1B688A4228BF4FF00109002B28D023
S315000022E03B68DB68DB685A689245B1D2019B484679
S315000022F01A6000E000201D4B1B68002B18BF012050
S3150000230003B0BDE8F08F174B1A681268F2B9184A85
S31500002310186811681960174910600A6801320A6066
S315000023201A6812685AB94FF0FF330D4A01921360CA
S315000023307BE748464FF0FF33019A1360DBE71B68E3
S31500002340074ADB6801921B6813606EE740F6C721F7
S31500002350094B0A4A0A48FEF789FE00BF0092002090
S31500002360B49100200C9100201491002004920020CA
S3150000237010910020B89100207050000040520000DB
S31500002380FC4F0000889100200891002070B586B0AF
S31500002390DDE90B54BDB124B360260596059E602E7B
S315000023A018D125630A9D02940095059D022584F89F
S315000023B05D5004AD0195FFF783FE2046FFF7A2FDB1
S315000023C0049806B070BD40F24A21094B094A0A48F2
S315000023D0FEF74CFE40F25321084B064A0648FEF72C
S315000023E045FE40F24B21064B024A0348FEF73EFEED
S315000023F0E8500000AC520000FC4F000024510000E1
S31500002400085100002DE9F043074685B090001546B7
S3150000241088469946FEF7E8FFD8B104466020FEF7E5
S31500002420E3FF0646D0B10463002486F85D400D9CA8
S315000024304B4601940C9C2A46414638460296009427
S31500002440FFF73EFE3046FFF75DFD012005B0BDE813
S31500002450F0834FF0FF3005B0BDE8F0832046FFF76C
S3150000246063F84FF0FF30F1E730B5002489B007AAD2
S3150000247006A905A8CDE90544FDF784FFDDE90501B8
S315000024802346CDE90110079A114912480094FFF737
S315000024907DFF78B100F04AFC01280FD180F3108847
S315000024A04FF0FF350C490D4A0D4B0D6010601C6056
S315000024B0FEF7EAF80B4B1B6809B030BD0130F9D1C5
S315000024C04FF40461084B094A0948FEF7CFFD00BFE7
S315000024D05C5100006D210000B4910020D4910020D1
S315000024E00092002030000020645100006452000079
S315000024F0FC4F0000024A136801331360704700BFA7
S31500002500809100202DE9F04F5A4F83B03B68002B95
S3150000251000F0A880FEF70EF83B68013B3B60D7F859
S3150000252000E0BEF1000F40F08D80534B1B68002B7E
S3150000253000F08880DFF864C1DCF80030002B00F082
S315000025408E80DFF85CB1CDF804E0DE46DFF854811A
S315000025504A4EDFF85491DCF80C30DB689A6AD3E90E
S31500002560070181604860506803F11804A04208BF63
S315000025705160019999621168013911605A69D3E96C
S31500002580021088604160516803F1040A51451168E0
S3150000259008BF506001391160DA6AD8F8001002EB02
S315000025A0820006EB800B8A42DBF8041088BFC8F86D
S315000025B000208C689960DC6056F820408D680134F4
S315000025C0C5F804A0C1F808A0C3F814B046F8204026
S315000025D0D9F80030DB6A9A4224BF0123CEF80030D6
S315000025E0DCF80030002BB6D1254BF3461A6812688A
S315000025F0002A2FD01A68234BD26812681A60224D1F
S315000026002C6894B1012606E0FFF704FE08B1CBF86A
S315000026100060013C08D03B68002BF5D02B68013CDC
S3150000262003F101032B60F6D12C60DBF800304BB1CF
S315000026304FF08052154B5A60BFF34F8FBFF36F8F29
S31500002640012000E000200190FDF79CFF019803B0F7
S31500002650BDE8F08F4FF0FF320A4B1A60CFE7DFF884
S3150000266040B0CCE740F6B301094B0A4A0A48FEF7E8
S31500002670FDFC00BF8091002078910020149100207D
S315000026800C910020B4910020BC91002000ED00E0E8
S315000026907851000054520000FC4F0000C091002009
S315000026A004920020889100200891002008B550B1BE
S315000026B00D4B196881B91A6801321A60FFF7BAFC26
S315000026C0FFF720FF38B94FF08052084B5A60BFF32E
S315000026D04F8FBFF36F8F08BD40F24951044B054A37
S315000026E00548FEF7C3FC00BF8091002000ED00E026
S315000026F04051000078520000FC4F0000014B186862
S31500002700704700BF00920020054B1B680BB9FFF70E
S3150000271081BD044A0020136801331360704700BF6F
S3150000272080910020BC9100201B4B1B681BB101222D
S315000027301A4B1A607047194A10B5194C1360236872
S31500002740184903EB830292008A58980042B9E3B114
S31500002750013B03EB830251F822209800002AF6D0B1
S31500002760184401EB800C6146DCF8042008315268FD
S315000027708A42CCF8042008BF5268D16808BFCCF85A
S315000027800420094A1160236010BD40F60241074B40
S31500002790074A0848FEF76AFC809100200492002050
S315000027A0889100201491002008910020905100008B
S315000027B02C520000FC4F000010B558B10C46094BD6
S315000027C019681831FEF702FF2046BDE810400121C6
S315000027D0FFF730BC40F61C41034B044A0448FEF7A1
S315000027E045FC00BF08910020A051000014520000D3
S315000027F0FC4F0000F8B50346F8B1134C5D68084677
S31500002800002A11462268AE68D561226818BF4FF0CB
S31500002810FF30166226682268276802F118041A68D3
S31500002820183602F1010CAA685660AC60BB62C3F8A8
S3150000283000C0BDE8F840FFF7FDBB40F65241034B30
S31500002840034A0448FEF712FC08910020A05100003C
S31500002850F4510000FC4F0000F8B5C368DB68002B9C
S3150000286057D0D3E9070100259A6A8160486050680D
S3150000287003F11804A04208BF5160116828480139C5
S315000028809D6211600268B2B126494A689068C3E940
S31500002890072090684460086894600130DA6A99629B
S315000028A0214B08601B68DB6A934230D201231F4A22
S315000028B018461360F8BD5A69D3E902108860D868D3
S315000028C01E1D416051681A4CB142116808BF506024
S315000028D00139184811600168DA6A8A4202EB8201FE
S315000028E004EB810788BF0260786889008568986074
S315000028F0DD60655805F1010C85686E6086605F6174
S31500002900094B44F801C01B68DB6A9342CED3002012
S31500002910F8BD40F68241084B084A0948FEF7A6FB77
S3150000292080910020C0910020089100200492002090
S315000029301491002088910020AC510000D85100006D
S31500002940FC4F0000034A044B12681B68C0E90023D1
S31500002950704700BFB891002000920020F0B583B008
S3150000296058B30D4681B30446FDF7E4FD2B681A4AB9
S31500002970581C11681FD0D4E90060DFF870C0DCF87D
S315000029800070BE420AD0884208D8002301202B607E
S315000029900190FDF7F7FD019803B0F0BD0F1ABB4299
S315000029A0F3D95B1ADCF80010126803442B60002090
S315000029B0C4E90012ECE70020EAE740F6FD41074BC8
S315000029C0074A0848FEF752FB40F6FE41064B044A0A
S315000029D00448FEF74BFB00BF00920020BC510000EC
S315000029E0C0520000FC4F0000C8510000B891002002
S315000029F00122014B1A60704704920020054B1B68A8
S31500002A0033B1054B1B68002B0CBF0220002070471A
S31500002A1001207047D491002080910020F0B5124C1F
S31500002A2083B0FDF787FD256825B103B0BDE8F0400A
S31500002A30FDF7A8BD0D4F0E4E3846FEF7B7FD3046E2
S31500002A40FEF7B4FD0B4A009517600B4A0C21166081
S31500002A500A200A4B0A4AFEF7B9FE20600028E4D095
S31500002A600849FFF7EFF9E0E7FC9200208892002082
S31500002A709C920020089200200C920020B492002024
S31500002A8010920020D852000070B50446164605E0A4
S31500002A90934218D82046236A98472946A369721A92
S31500002AA05D182CBF01200020B54265602461EFD976
S31500002AB0B14201D90028EDD0064B211D1868BDE8AA
S31500002AC07040FEF783BD044B211D1868BDE87040B9
S31500002AD0FEF77CBD089200200C920020104A70B5CB
S31500002AE012680546D2680E46D468201DFEF786FD9C
S31500002AF094F824305A0708D423F0010384F82430CC
S31500002B002046236ABDE870401847204632462946CB
S31500002B10FFF7BAFF2046236ABDE87040184700BF9A
S31500002B20089200202DE9F047784D794E794C7A4F7E
S31500002B30DFF8F48184B02B68D3F800A0BAF1000F57
S31500002B4000F0B280DB68D3F800A0FFF7D3FCFFF7F4
S31500002B50D5FD33688146834240D88245306040F2D5
S31500002B60BE8000222068AAEB0901FFF7A3F9FFF750
S31500002B70C9FC38B94FF08053C8F80430BFF34F8F03
S31500002B80BFF36F8F0022206801A9FEF7E3FF00283C
S31500002B90D1D0019B002BF5DBDDF80C90D9F8143071
S31500002BA01BB109F10400FEF729FDFFF7A7FD336805
S31500002BB08246984224D3019BC6F800A0013B082B0D
S31500002BC0E0D8DFE803F0252549506825254950005F
S31500002BD0DB684FF0FF311868FFF780FF2B681A6833
S31500002BE0002AF5D13A68C6F800902A603B60FFF7E4
S31500002BF089FCC7E7DB684FF0FF311868FFF76EFF07
S31500002C002B681A68002AF5D13A683B602A60D2E739
S31500002C1099F82400029BD9F8182040F0010C991865
S31500002C2089F824C02CBF4FF0010C4FF0000C514521
S31500002C30C9F80410C9F8109046D8AAEB03039A42C3
S31500002C4023D8430756D420F0010089F824004846CB
S31500002C50D9F82030984795E799F8243023F00103F6
S31500002C6089F824308EE799F82420029B42F001026D
S31500002C7089F82420C9F81830002B40D05344534516
S31500002C80C9F80430C9F8109023D8386809F104014E
S31500002C90FEF79CFC76E799F824309A0726D523F0B0
S31500002CA0010389F824306DE7FFF724FCFFF726FDC2
S31500002CB033688146834291D83B68C6F800901A680B
S31500002CC0B2FA82F252094DE7534502D9BCF1000F20
S31500002CD0B7D0286809F10401FEF778FC52E7FFF740
S31500002CE011FC49465046FFF7F9FE4BE74846FEF70A
S31500002CF01BFC47E752464846FFF7C6FEA7E740F2E9
S31500002D005931064B064A0748FEF7B0F908920020EB
S31500002D10B0920020FC9200200C9200202853000064
S31500002D2060530000FC52000000ED00E030B589B0B1
S31500002D30FFF774FE114B1B68CBB10024032507AACD
S31500002D4006A905A8CDE90544FDF72AFBDDE905013D
S31500002D502346CDE90110079A09490A480095FFF76D
S31500002D6015FB094B186010B1012009B030BD40F2C7
S31500002D701911064B064A0748FEF778F9FC9200201F
S31500002D8050530000252B00000093002058530000EC
S31500002D907C530000FC52000003685A004CBF43F00D
S31500002DA0004323F000431844704700BF2DE9F04765
S31500002DB039B301F1FF38064617464FF0000945467C
S31500002DC019EB050148BF0131491006EBC10ACC00D9
S31500002DD05046FFF7E1FF08348845034606EB04003A
S31500002DE009D0BB4209D8FFF7D7FF013801F1010925
S31500002DF0B842E5D307E0BB4205D9894501F1FF3565
S31500002E00DED14FF0000A5046BDE8F087012807D012
S31500002E10022807D00028044B14BF0020184670472C
S31500002E2002487047024870471D35000021350000F2
S31500002E3025350000234B30B5044683B08D1E43B3C1
S31500002E4001A9284600E000BFF0B101992A46FFF724
S31500002E50ADFF0146C0B1FFF79FFF4B68A064012B91
S31500002E602CD0002B01F1040024DBFFF795FF002393
S31500002E70C4E913030368002B11DBFFF78DFF03463C
S31500002E800020236103B030BD00230920236103B075
S31500002E9030BD0D480D49091AC9100191D6E7C3F393
S31500002EA00360FFF7B3FF0028206114BF002009204C
S31500002EB003B030BD0123C4E91303DBE7002305207B
S31500002EC02361DFE7000000002C540000F4540000EA
S31500002ED00368DA0710B5044606D49B0700F14800DC
S31500002EE009D500F08FFC2368590709D51A070ED5B6
S31500002EF0DB0613D510BD00F07DFC23685907F5D419
S31500002F0004F1D00000F086FC23681A07F0D404F51B
S31500002F10A87000F087FC2368DB06EBD404F5E870A4
S31500002F20BDE8104000F0C2BC0920704703460068A7
S31500002F3000B11844704700BF704700BF70B5044623
S31500002F400E46316C2046FFF775FF054698B9D6F850
S31500002F5040C03246236921460120C4F814C0984770
S31500002F600828EED0072806D12846316CFFF7E4FF83
S31500002F70301D00F033FC00F0C1FE00BF2DE9F04724
S31500002F8001F1040CADF5747DC7680646D0F81880CB
S31500002F9014460DF1140E04AD4FF00009BCE80F0005
S31500002FA0AEE80F00BCE80F00AEE80F00BCE80F006B
S31500002FB0AEE80F009CE80F008EE80F00C5F8009001
S31500002FC023E02B6C4FF4F07229467CA8736100F065
S31500002FD0A3FE7CAA31463369504698478A9B214610
S31500002FE0814603933246039C334601206C64CDE947
S31500002FF00058B8470446E8B94FF4F0727CA9284651
S3150000300000F08AFEB9F1080F1BD10934296C30464D
S31500003010FFF710FF81465FFA84FA0028D1D0AC6B27
S31500003020334632464AF010016C640120CDE900585F
S31500003030B84708B14FF0090948460DF5747DBDE85B
S31500003040F087B9F1070FF5D12046296CFFF774FF19
S3150000305005A800F0C3FB00BF406C7047F0B5CB6B12
S31500003060F9B001F1040C0E460B6401AC05464FF0B5
S31500003070FF37BCE80F000FC4BCE80F000FC4BCE864
S315000030800F000FC49CE80F0084E80F00009706E0CD
S315000030902B696A46294698470828044608D110999C
S315000030A02846FFF7C7FE0028F2D0092079B0F0BD08
S315000030B06846FFF70DFF062CF7D131462846FFF785
S315000030C03DFF00BF10B4DC6BC1601946826100226F
S315000030D01C6410BC52E700BF70B54369C6680B6438
S315000030E0AEB903690A4604460D46014602209847D2
S315000030F0072805D008280FD129462046FFF71EFFCE
S315000031003046296CFFF718FF281D00F067FB0122E7
S31500003110FFF734FF00F0F2FD00F0F0FDC2682AB1BF
S31500003120D1F83CC00022C1F840C027E796E700BFAF
S31500003130704700BF836801460BB1012018477047EE
S31500003140012915D00CD88BB90F2A94BF0021012173
S3150000315061B900EB820208465368009A1360704713
S315000031600339012994BF01200220704702207047CD
S315000031700846704710B584B000230A4603AC1946CA
S315000031800094FFF7DDFF039804B010BD012915D0A8
S315000031900CD88BB90F2A94BF0021012161B9009B7D
S315000031A000EB820208461B68536070470339012909
S315000031B094BF0120022070470220704708467047DE
S315000031C010B584B0002303AC03920A461946009456
S315000031D0FFF7DCFF04B010BDF0B5D36BADF50F7D86
S315000031E0141D064613640DF15C0C0D464FF0FF37B7
S315000031F00FCCACE80F000FCCACE80F000FCCACE85E
S315000032000F0094E80F008CE80F00169710E0FFF708
S31500003210D7FF294616A8B047034616AA69460820CE
S3150000322083B9049B9847052804460CD009280AD080
S3150000323026996846FFF7FEFD03466A460C2116A846
S31500003240002BE4D0092416A8FFF742FE20460DF510
S315000032500F7DF0BD2DE9F04FCC6C89B01E460D46B2
S3150000326054F8043B174600F003080694002E7FD05E
S315000032701A0C1B048DF81D20D2B20593022304EB11
S3150000328082048DF81C30B8F1020F2B6D08BFAC6BB1
S3150000329013F0010308D005A9384600F0A1FB90BB46
S315000032A0082009B0BDE8F08FD4F800A0BAF1000FED
S315000032B0F1D0019300F008030293022E54D0B4F823
S315000032C000A0043434F8029CAB6C29F0010B0F21EA
S315000032D038469B44FFF74EFF834518D82AF0010372
S315000032E09B44834513D94FEA49030AF0010A03F0C8
S315000032F0020343EA0A03012B00F0BF80022B00F011
S315000033008980002B4DD0092009B0BDE8F08F4FEA27
S3150000331049030AF0010A03F0020343EA0A03012BF8
S315000033203AD0022B2AD0002BEDD10434D4F800A0D9
S31500003330BAF1000FC1D105A9384600F051FB0028AB
S31500003340E1D1019B002BABD00F213846FFF712FFCE
S315000033500E2102463846FFF733FF38466E4A0F21E4
S31500003360FFF72EFF0720CFE7D4F804900834ABE729
S315000033701B0205930323ADF81C3084E7236823F072
S31500003380004BB8F1000F21D1002B00DA04340BF109
S31500003390010B04EB8B04C9E7B8F1000F20D1083408
S315000033A0C4E7B8F1000FC0D020460434FFF7F4FCA0
S315000033B00646AC63284600E000BF0028A3D0384686
S315000033C032460F21FFF7FCFE07209DE7D5F8209037
S315000033D00D213846FFF7CEFE814579D02368D3E725
S315000033E0D5F820900D213846FFF7C4FE8145D6D189
S315000033F0AB6A9C42D3D120460F21FFF7CDFC024693
S315000034003846FFF7DDFE38462A460021FFF7D8FE8C
S31500003410072079E7236823F0004BB8F1000FD5D1D8
S31500003420029A12B1BBF1000FAED105F15803CDF8E7
S315000034300C8004F1040AB0464FF000091E460DE068
S31500003440504604960022FFF771FD04AB014628465C
S315000034500AF1040A00E000BF00284AD1D94509F163
S315000034600109EDD10D213846FFF784FE049B024683
S3150000347006202A62C5E9093446E7B8F1000FAFD144
S3150000348063682268991C4FEAD2723FF43CAF05F19B
S3150000349058010133049131D0201DFFF747FD04ABDD
S315000034A00146284600E000BF00283FF478AF814679
S315000034B00D213846FFF75EFEB9F1020F286222D1D0
S315000034C02B46049A43F82C2F6B620620AC621BE74E
S315000034D0AB6A9C4282D104230022C5F828B0C5E914
S315000034E00B23E3186B632368002B0FDB0123019387
S315000034F04DE746462368DDF80C8045E70D21384642
S31500003500FFF738FE2862049B6B62DEE70BF10100D1
S315000035100F2104EB800070E700000000002399E60D
S31500003520012397E6022395E62DE9F0430646C3B04C
S3150000353015461C46042900F2C280DFE801F0A359B3
S31500003540C02C0300002C40F0BA80102A00F2B7808D
S315000035500368DF0600F1B78020AF384600F0B0F907
S31500003560B46B394600234FF0010C0CFA03F22046E7
S3150000357001332A4203D050F8042B04460A60042B78
S3150000358001F10401F1D13846B46300F08FF900204F
S3150000359043B0BDE8F083032C40F091801FFA82F817
S315000035A0140C08EB1245102D00F2898003681A07E7
S315000035B000F1CD8020AF384600F056F9B56B07EB29
S315000035C0C401B8F1000F0BD00B4601EBC8014FEA5E
S315000035D0C808E81A1A5843F8042B8B42FAD1454416
S315000035E03846B56300F01EF9002043B0BDE8F0830D
S315000035F004F0FB034FEA124895B2012B5FD1012C70
S3150000360008EB050958D0B9F1200F58D8B8F10F0FBB
S3150000361075D9052CA94600F0A480002D4FD1B36BB7
S3150000362065B320AF4FF0000907EBC80703EBC505EC
S31500003630043F53F8041B9D4247F8041FF9D1B9F122
S31500003640000F0FD06F46414603EBC905102938BF5E
S31500003650102107EBC101843953F8040B9D4241F850
S31500003660040FF9D1012C7AD0B8F10F0FB5636AD9DE
S31500003670B9F1000F02D0684600F0CCF8002043B044
S31500003680BDE8F083DCB9876B23461FFA82FC012074
S31500003690341D00FA03F13A4611EA0C0F04D052F831
S315000036A0041B174644F823100133102BF1D115F4EF
S315000036B00050E3D1B76303E0B9F1100F0BD9022034
S315000036C043B0BDE8F08323F0100300F5E8703360E3
S315000036D000F0F6F840E7B8F10F0FF0D80368D80706
S315000036E050D420AF384600F089F8B36B002D99D13D
S315000036F01D4604353846B56300F07CF8BEE7B9F1DF
S31500003700100F58D9052CDAD13368A9F11009DD0755
S3150000371009D523F00103304643F0020340F8483B45
S3150000372000F074F83368590721D420A800F06EF829
S315000037306F46C8F11005384600F070F8002DB36BDF
S3150000374081DD20AF70E720A800F05CF890E723F059
S31500003750080300F5A870336000F086F82AE720AF6A
S31500003760C7E7002D3FF45BAF33685A07E0D523F077
S315000037700403304640F8D03B00F050F8B8F10F0F84
S31500003780D6D8D2E723F00303304640F8483B00F092
S3150000379035F8012CA5D0B8F10F0F3FF640AF20AF9A
S315000037A0384600F033F8B36B002D7FF43BAF384654
S315000037B000F028F862E73368D907EAD5052CE1D18D
S315000037C023F00103304620AF43F0020340F8483BA4
S315000037D000F01CF8384600F019F8E4E700F134016F
S315000037E091E838009C46A6464CF8045D90E8FF0F29
S315000037F0E54600BD90EC210B704700BF80EC210B25
S31500003800704700BF90EC200B704700BF80EC200B88
S31500003810704700BFD0EC200B704700BFC0EC200BF8
S31500003820704700BFF0EC0201F0EC0211F0EC02214F
S31500003830F0EC0231F0EC0241F0EC0251F0EC0261E6
S31500003840F0EC0271F0EC0281F0EC0291F0EC02A1D6
S31500003850F0EC02B1F0EC02C1F0EC02D1F0EC02E1C6
S31500003860F0EC02F1704700BFE0EC0201E0EC02115F
S31500003870E0EC0221E0EC0231E0EC0241E0EC025126
S31500003880E0EC0261E0EC0271E0EC0281E0EC029116
S31500003890E0EC02A1E0EC02B1E0EC02C1E0EC02D106
S315000038A0E0EC02E1E0EC02F1704700BFB0FC018100
S315000038B0B0FC0191B0FC01A1B0FC01B1704700BFA2
S315000038C0A0FC0181A0FC0191A0FC01A1A0FC01B11A
S315000038D0704700BFEC4600B52DE900502DE9FF1FEB
S315000038E04FF000032DE90C0001A9FFF7B7FBDDF847
S315000038F040E012B0704700BFEC4600B52DE900501D
S315000039002DE9FF1F4FF000032DE90C0001A9FFF779
S31500003910E3FBDDF840E012B0704700BFEC4600B5AF
S315000039202DE900502DE9FF1F4FF000032DE90C0093
S3150000393001A9FFF7F3FBDDF840E012B0704700BFC6
S31500003940EC4600B52DE900502DE9FF1F4FF00003AE
S315000039502DE90C0001ABFFF7B5FBDDF840E012B036
S31500003960704700BFEC4600B52DE900502DE9FF1F5A
S315000039704FF000032DE90C0001AAFFF72DFCDDF83E
S3150000398040E012B0704700BF027A03468AB9427A15
S31500003990B2B14168013A4FF0030C10B442720C1DEB
S315000039A0086883F808C002025C60000E10BC1A604A
S315000039B070470068013A1A720202000E1A607047D8
S315000039C0B020704710B584B000230C2203AC194612
S315000039D00094FFF7B5FB039804B010BDF2E700BFF3
S315000039E02DE9F0434FF0000885B006460D462846FF
S315000039F0FFF7CAFFB028044600F0BC80070620D5B2
S31500003A0000F0F003802B4ED0902B37D0A02B61D046
S31500003A10B02B76D0C02B00F08D8000F0F803D02BB1
S31500003A200BD100F00702052301213046013242F492
S31500003A300022FFF779FD0028D9D0092005B0BDE89E
S31500003A40F08383000DF10C090D223046DBB2CDF870
S31500003A5000901F1D00231946FFF772FB039B6006AB
S31500003A604FF00D023046CDF800904CBFDF1BFF181B
S31500003A70002303971946FFF789FBB8E700F00D030B
S31500003A800D2BDAD003AF002300F00F0230461946A3
S31500003A900097FFF755FB00230D2230461946009785
S31500003AA0FFF774FBA3E724022846FFF76DFF2043C8
S31500003AB0B0F5004FC1D0040100233046A2B219462A
S31500003AC0FFF732FD0028B8D114F4004F18BF4FF0AD
S31500003AD001088CE7C2430107304602F007034FF4A2
S31500003AE07F6242FA03F24FF0000302F47F62194646
S31500003AF048BF42F48042FFF717FD00283FF477AF36
S31500003B009BE7B1283BD0B22800F0A180B32841D072
S31500003B1000F0FC03B42B90D000F0070201231A44F6
S31500003B2042F4002219463046FFF7FEFC00283FF417
S31500003B305EAF82E7C62851D0C72862D000F0F803EE
S31500003B40C02B71D0C82876D0C9287FF476AF284616
S31500003B50FFF71AFF020300F00F0002F47022013093
S31500003B600243012105233046FFF7DEFC00283FF41F
S31500003B703EAF62E7B8F1000F1FD000205EE728468F
S31500003B80FFF702FF024600283FF457AF10F0F0039C
S31500003B90C8D052E72846FFF7F7FE00F00F030203EE
S31500003BA03046013302F470221A4301231946FFF707
S31500003BB0BBFC00283FF41BAF3FE703AC43460E2295
S31500003BC0414630460094FFF7BBFA43460F22304683
S31500003BD041460094FFF7DAFA40462FE72846FFF7FA
S31500003BE0D3FE00F00F0302033046013302F47022C5
S31500003BF01A4303231946FFF797FC00283FF4F7AE54
S31500003C001BE72846FFF7C0FE024600283FF415AF23
S31500003C1010F0F0037FF411AF04213046FFF784FC67
S31500003C2000283FF4E4AE08E700F00F020323013258
S31500003C3042F4202276E72846FFF7A6FE00F0F002BF
S31500003C4000F00F031032013343EA023289E7002302
S31500003C500DF10C090D2230461946CDF80090FFF7FC
S31500003C606FFA2846FFF790FE02064FF002040BD5C6
S31500003C7000F07F00039BA0400734184403902846B9
S31500003C80FFF782FE0306F3D4039B00F07F02CDF814
S31500003C9000903046A24003F501731A4400230392B4
S31500003CA019460D22FFF772FAA1E600BFC26C0B4659
S31500003CB04FF0030C1846083252F8043C00B585B0A4
S31500003CC0029201A91A0E8DF80CC01B028DF80D2068
S31500003CD00193FFF785FE05B05DF804FB08B5FFF715
S31500003CE07DFE806C08BD00BF08B5FFF777FEC06C8F
S31500003CF0C379023300EB830008BD00BF062008B578
S31500003D0000F048F8012000F07BFBFFFF014B18682C
S31500003D10704700BF340000200A44431E914200D180
S31500003D20704710B511F8014B914203F8014FF9D1D4
S31500003D3010BD02440346934200D1704703F8011BAD
S31500003D40F9E71F2938B504460D4604D91623036042
S31500003D504FF0FF3038BD426C12B152F821304BB9EA
S31500003D60204600F031F82A4601462046BDE8384094
S31500003D7000F018B8012B0AD0591C03D11623036092
S31500003D800120E7E70024284642F82540984700200E
S31500003D90E0E7FFFF024B01461868FFF7D2BF00BFFE
S31500003DA03400002038B50023064D04460846114667
S31500003DB02B6000F043FB431C02D12B6803B1236048
S31500003DC038BD00BF0C93002000F0FEB970B50E4E52
S31500003DD00C460546316811B900F08CF83060214672
S31500003DE0284600F087F8431C0AD0C41C24F00304BC
S31500003DF0A04207D0211A284600F07CF8013001D1F4
S31500003E004FF0FF34204670BD089300202DE9F041A5
S31500003E10CD1C074625F0030508350C2D38BF0C25AB
S31500003E20002D01DBA94205D90C2300263B60304654
S31500003E30BDE8F0812E4E00F06DF833681C4634BBA9
S31500003E4029463846FFF7C2FF431C04464DD1346865
S31500003E502646002E40D123683146384604EB030837
S31500003E6000F048F880453AD12168033538466D1A86
S31500003E7025F0030508350C2D38BF0C252946FFF71C
S31500003E80A5FF01302BD023682B4423600EE0226867
S31500003E90521B1ED40B2A16D96119A342256018BFDE
S31500003EA05960636808BF316062514B6004F10B06CC
S31500003EB0384600F035F8231D26F00706F21AB6D06C
S31500003EC09B1BA350B3E76268A3420CBF32605A60E3
S31500003ED0ECE723466468B2E734467668B9E70C2314
S31500003EE038463B6000F01CF8A1E72560DEE700BF1E
S31500003EF00493002038B50023054D044608462B6080
S31500003F00FDF7B6F9431C02D12B6803B1236038BD17
S31500003F100C930020014800F056B800BF1093002013
S31500003F20014800F051B800BF1093002037B50029B2
S31500003F3043D051F8043C0C1F0190002BB8BFE41885
S31500003F40FFF7E8FF1E4A0198136833B963601460EF
S31500003F5003B0BDE83040FFF7E3BFA34208D92568A8
S31500003F6061198B4201BF19685B6849192160EDE749
S31500003F701A465B680BB1A342FAD911685518A542D7
S31500003F800BD12468214454181160A342E0D11C6867
S31500003F905B68214453601160DAE702D90C230360A1
S31500003FA0D6E7256861198B4202BF19685B68491913
S31500003FB0636008BF21605460CAE703B030BD00BF2C
S31500003FC004930020704770477047FFFF0A4B10B5F7
S31500003FD00446186818B183690BB900F093FA132CDC
S31500003FE007D8064850F83420013202D000EBC4004E
S31500003FF010BD0020FCE700BF340000201493002011
S31500004000F8B504461326FFF781FE0027054630461D
S315000040103946ABBE064620462E60F8BD431C01D18C
S31500004020FFF7EEBF704730B585B0062401AD0392A9
S31500004030CDE9010120462946ABBE04462046FFF7DE
S31500004040EDFF05B030BD37B515460191FFF7BEFF50
S315000040500446019938B9FFF759FE092303604FF06A
S31500004060FF3003B030BD2A460068FFF7DCFF431C73
S31500004070F7D02A1A6368134410466360F1E7F7B570
S315000040800C461646FFF7A2FF054640B9FFF73EFE6F
S31500004090092303604FF0FF34204603B0F0BD022E23
S315000040A003D9FFF733FE1623F3E7012E12D1436837
S315000040B0E418F6D42B680A266F46CDE9003430465C
S315000040C03946ABBE06463046FFF7A8FF0028E1DBBF
S315000040D06C60E1E7022EEDD103680C266F46009373
S315000040E030463946ABBE06463046FFF797FF431CBF
S315000040F0D0D00444DEE7FFF7C2BF30B585B0052453
S3150000410001AD0392CDE9010120462946ABBE044626
S315000041102046FFF783FF05B030BD37B51546019140
S31500004120FFF754FF0446019930B9FFF7EFFD092365
S3150000413003604FF0FF3012E02A460068FFF7DDFF0C
S315000041400028F6DB62682B1AA8421A44626005D181
S31500004150002003B0BDE83040FFF752BF184603B059
S3150000416030BD37B5022401AD019020462946ABBECD
S3150000417004462046FFF752FF03B030BD38B505466A
S31500004180FFF724FF044630B9FFF7C0FD092303609B
S315000041904FF0FF3038BD013D012D09D8094B9A6813
S315000041A01B699A4204D14FF0FF3303600020F1E708
S315000041B02068FFF7D6FF0028ECD14FF0FF332360CD
S315000041C0E8E700BF149300200120704770B50C4645
S315000041D0FFF7FCFE054630B9FFF798FD092303609B
S315000041E04FF0FF3070BD63680C2643F400536360E4
S315000041F04FF48063A36430462946ABBE0546284685
S31500004200FFF70CFF431C1CBF20610020EAE738B50E
S315000042100D460446582200212846FFF78AFD20460F
S31500004220002100F011F8431C04460BD06B682946A8
S3150000423043F401436B60FFF7C9FF054620462C4651
S31500004240FFF79CFF204638BD2DE9F043074697B09F
S315000042500E460025DFF8A08058F83540611C36D0A0
S315000042600135142DF8D1FFF751FD18234FF0FF3417
S3150000427003603CE0C6F3004440F20163B2073846EF
S31500004280009748BF44F002041E4218BF44F00404DD
S31500004290330744BF24F0040444F0080400F012FA83
S315000042A0CDE90140012420464946ABBE0446002C18
S315000042B008DB48F83540002308EBC5082C46C8F84B
S315000042C0043014E02046FFF79BFE04460FE006F498
S315000042D02063E946B3F5206FCCD149463846FFF74F
S315000042E096FF0130C6D0FFF711FD1123036020466B
S315000042F017B0BDE8F08300BF149300202DE9F74303
S31500004300064615460F462A480021FFF79DFF04463C
S315000043102A4600213046FFF70CFD631C16D02046C6
S315000043204FF00C09FFF752FE804648464146ABBEA9
S3150000433080464046FFF772FE032802DDC31EAB42ED
S3150000434008DC20464FF0FF34FFF718FF204603B085
S31500004350BDE8F083042220460DEB0201FFF773FE51
S315000043600328EEDD9DF80430532BEAD19DF8053085
S31500004370482BE6D19DF80630462BE2D19DF8073052
S31500004380422BDED1012239462046FFF778FE00286F
S31500004390D7DB2A4631462046FFF755FE054620461E
S315000043A0FFF7ECFE2846FFF739FE0446CEE700BFCE
S315000043B09853000037B500210122094D01A8094C88
S315000043C029602260FFF79AFF002807DD9DF8043078
S315000043D003F0010203F002032A60236003B030BD3C
S315000043E0980000209C00002010B5044C2368002B88
S315000043F001DAFFF7DFFF206810BD00BF980000203C
S315000044000146034A4FF0FF3008B500F003F800BF3D
S315000044102600020007B5CDE90021FFF7E5FF0028D9
S3150000442014BF20241824FFF7DFFF20B16D46204675
S315000044302946ABBE0446009DF9E7FFFF062908B5ED
S315000044400CBF024A024AFFF7E5FF00BF2300020045
S3150000445026000200002310B50446836081811946B8
S315000044604366C28108228361C0E90033C0E9043390
S315000044705C30FFF75EFC054B24626362044BA3626B
S31500004480044BE362044B236310BD00BF3F460000AC
S315000044906146000099460000BD460000014900F053
S315000044A0AFB800BF2148000070B568224D1E0E4609
S315000044B0554305F17401FFF7A9FC044640B10021FC
S315000044C005F16802C0E900160C30A060FFF731FC68
S315000044D0204670BD0148FFF776BD00BF119300204E
S315000044E00148FFF771BD00BF119300200148FFF797
S315000044F06ABD00BF129300200148FFF765BD00BFEB
S315000045001293002010B50446FFF7F0FFA3691BB114
S31500004510BDE81040FFF7F0BFC4E91233236520461B
S31500004520124B134A1B68A262A34204BF0123A36174
S3150000453000F020F86060204600F01CF8A0602046DD
S3150000454000F018F800220421E0606068FFF782FF9F
S3150000455001220921A068FFF77DFF02221221E068EF
S31500004560FFF778FF0123A361D2E700BF9453000051
S315000045709D440000F8B50746FFF7ACFF1E4B1E68CA
S31500004580B36913B93046FFF7BDFF4836D6E90134A3
S31500004590013B03D533680BB33668F7E7B4F90C5023
S315000045A0D5B9164B04F158006566E360FFF70AFDBE
S315000045B0FFF796FF0822294604F15C002560A561F5
S315000045C0C4E90155C4E90455FFF7B3FBC4E90D5529
S315000045D0C4E912552046F8BD6834D9E704213846A7
S315000045E0FFF762FF044630600028D5D1FFF778FF59
S315000045F00C233B60EEE700BF945300000100FFFF71
S315000046002DE9F8430646884600F148040027D4E918
S315000046100195B9F1010905D52468002CF7D1384672
S31500004620BDE8F883AB89012B07D9B5F90E30013304
S3150000463003D029463046C04707436835E9E710B539
S315000046400C46B1F90E1000F039F90028ABBF636DC6
S31500004650A3891B1823F48053ACBF6365A38110BDE7
S315000046602DE9F0411F468B8905460C46DB051646AB
S3150000467005D502230022B1F90E1000F00DF9A38929
S315000046803246B4F90E10284623F48053A3813B46E4
S31500004690BDE8F04100F01EB810B50C46B1F90E1099
S315000046A000F0FAF8431CA38915BF606523F4805314
S315000046B043F48053A38118BFA38110BDB1F90E1036
S315000046C000F01AB8034613F8012B002AFBD1181A7A
S315000046D00138704738B50446064D08461146002293
S315000046E02A601A46FFF719FD431C02D12B6803B155
S315000046F0236038BD0C93002038B50023054D0446D1
S3150000470008462B60FFF73AFD431C02D12B6803B124
S31500004710236038BD0C9300208A892DE9F0410546B7
S3150000472010070C4658D44B68002B05DC0B6C002B8D
S3150000473002DC0020BDE8F081E66A002EF9D00023F5
S3150000474012F480522F682B6032D0606DA3895A070D
S3150000475005D56368C01A636B0BB1236CC01A0023BE
S315000047600246E66A2846216AB047431CA38906D159
S3150000477029681D292CD8294ACA40D60728D50022DF
S31500004780D90462602269226004D5421C01D12B68DB
S3150000479003B96065616B2F600029CAD004F1440338
S315000047A0994202D02846FFF7C1FB00206063C1E7AB
S315000047B0216A01232846B047411CC7D12B68002B2C
S315000047C0C4D01D2B01D0162B01D12F60B1E7A389D0
S315000047D043F04003A381ADE70F69002FA9D09307EB
S315000047E00E680F600CBF4B690023A6EB07088B60B1
S315000047F0B8F1000F9DDD43463A46216A2846A66A6F
S31500004800B047002806DCA3894FF0FF3043F0400391
S31500004810A3818FE70744A8EB0008E9E701004020E1
S3150000482038B50B6905460C4613B90025284638BD30
S3150000483018B183690BB9FFF765FE144B9C421BD177
S315000048406C68B4F90C30002BEFD0626ED00704D43C
S31500004850990502D4A06DFFF7B6FB28462146FFF75F
S315000048605BFF636E0546DA07E0D4A3899B05DDD4BA
S31500004870A06DFFF7A9FBD9E7054B9C4201D1AC68B7
S31500004880DFE7044B9C4208BFEC68DAE7D053000030
S31500004890F0530000B053000038B50446064D0846F4
S315000048A0114600222A601A46FFF725FC431C02D156
S315000048B02B6803B1236038BD0C93002038B504463D
S315000048C0064D0846114600222A601A46FFF7BBFB32
S315000048D0431C02D12B6803B1236038BD0C93002022
S315000048E04275696C7420776974682052656E6573C9
S315000048F0617320416476616E63656420466C6578F9
S3150000490069626C6520536F667477617265205061C9
S31500004910636B6167652076657273696F6E20342EEE
S31500004920302E3000342E302E3000000000000004FF
S31500004930F8B500BFF8BC08BC9E467047F8B500BF86
S31500004940F8BC08BC9E467047E4000020644900009D
S31500004950304B00004D61696E2054687265616400D9
S3150000496000000000060000006C4900000400000082
S315000049700000000004000000010000000400000028
S31500004980070000000000010008010000000001000F
S315000049900003000004000000020600006D006E0027
S315000049A06B006C007F017D017E01000000000000AD
S315000049B000000000000000000000000000000000F1
S315000049C000000000000000000000000000000000E1
S315000049D000000000000000000000000000000000D1
S315000049E000000000000000000000000000000000C1
S315000049F000000000000000000000000000000000B1
S31500004A0000000000000000000000000000000000A0
S31500004A100000000000000000000000000000000090
S31500004A200000000000000000000000000000000080
S31500004A300000000000000000000000000000000070
S31500004A400000000000000000000000000000000060
S31500004A5000000000000000000000000075635356CF
S31500004A60434E756D626572203C3D203300000000A8
S31500004A702E2E2F72612F6673702F7372632F726DD5
S31500004A805F6672656572746F735F706F72742F7094
S31500004A906F72742E6300FFFF2828285343425F5429
S31500004AA0797065202A29202828307845303030450D
S31500004AB0303030554C29202B20307830443030555A
S31500004AC04C2920292D3E4943535220262028307850
S31500004AD0314646554C202929203D3D203000FFFF18
S31500004AE07578437269746963616C4E657374696E37
S31500004AF06700FFFF76506F72744578697443726978
S31500004B00746963616C00FFFF76506F7274456E7452
S31500004B106572437269746963616C00FF76506F72E7
S31500004B207453564348616E646C65725F4300FFFFC1
S31500004B30110E0000410B0000250E0000310E000092
S31500004B40050C0000590C00004D0B0000A10B0000E5
S31500004B50C10B0000ED0B00003D0C0000710B0000C6
S31500004B60850B000001000200080010002820282004
S31500004B70282073697A655F7420292070784E6577DE
S31500004B80426C6F636B4C696E6B20292026202820AF
S31500004B9030783030303720292029203D3D20300024
S31500004BA02E2E2F72612F6177732F467265655254D0
S31500004BB04F532F4672656552544F532F536F75727C
S31500004BC063652F706F727461626C652F4D656D4DF4
S31500004BD0616E672F686561705F342E6300000000A8
S31500004BE028202820282073697A655F742029207080
S31500004BF07652657475726E202920262028207369E6
S31500004C007A655F74202920282030783030303720AC
S31500004C10292029203D3D203000FFFFFF2820707805
S31500004C204C696E6B2D3E78426C6F636B53697A6587
S31500004C3020262078426C6F636B416C6C6F636174E5
S31500004C406564426974202920213D2030000000005F
S31500004C5070784C696E6B2D3E70784E65787446722E
S31500004C606565426C6F636B203D3D202828766F6931
S31500004C7064202A29302900FF76506F7274467265C7
S31500004C806500FFFF7076506F72744D616C6C6F63D8
S31500004C9000FFFFFF78517565756500002E2E2F7297
S31500004CA0612F6177732F4672656552544F532F46B5
S31500004CB072656552544F532F536F757263652F712A
S31500004CC0756575652E6300FF7078517565756500AD
S31500004CD07852657475726E20213D20282028202880
S31500004CE02042617365547970655F742029203020F5
S31500004CF0292029007078537461746963517565754C
S31500004D00650000007853697A65203D3D2073697A15
S31500004D10656F66282051756575655F7420290000EA
S31500004D2070784E6577517565756500FF7848616ED8
S31500004D30646C6500212820282070764974656D54BE
S31500004D406F5175657565203D3D202828766F69642D
S31500004D50202A29302920292026262028207078512B
S31500004D60756575652D3E75784974656D53697A6507
S31500004D7020213D2028205542617365547970655F76
S31500004D807420292030552029202900002128202898
S31500004D902078436F7079506F736974696F6E203D28
S31500004DA03D202820282042617365547970655F7420
S31500004DB02029203220292029202626202820707804
S31500004DC051756575652D3E75784C656E67746820FE
S31500004DD0213D2031202920290000000021282028FB
S31500004DE020785461736B4765745363686564756CAA
S31500004DF0657253746174652829203D3D202820285A
S31500004E002042617365547970655F742029203020D3
S31500004E10292029202626202820785469636B73547C
S31500004E206F5761697420213D20302029202900FF19
S31500004E306354784C6F636B20213D2028202820691D
S31500004E406E74385F74202920313237202900FFFF25
S31500004E50707851756575652D3E75784974656D5325
S31500004E60697A65203D3D2030000000002128202879
S31500004E7020707851756575652D3E7063486561646F
S31500004E80203D3D202828766F6964202A2930292074
S31500004E9029202626202820707851756575652D3EB7
S31500004EA0752E7853656D6170686F72652E784D75D5
S31500004EB0746578486F6C64657220213D20282876D9
S31500004EC06F6964202A2930292029202900FFFFFF45
S31500004ED028207078517565756520290021282028BD
S31500004EE020282070764275666665722029203D3D31
S31500004EF0202828766F6964202A293029202920262F
S31500004F002620282028207078517565756520292D62
S31500004F103E75784974656D53697A6520213D202870
S31500004F20205542617365547970655F74202920307D
S31500004F30552029202900FFFF785175657565536551
S31500004F406D6170686F726554616B65007851756547
S31500004F5075655265636569766500FFFF785175650D
S31500004F60756547656E6572696353656E6446726FF3
S31500004F706D49535200FFFFFF7851756575654765AA
S31500004F806E6572696353656E6400FFFF78517565DF
S31500004F907565437265617465436F756E74696E6796
S31500004FA053656D6170686F726553746174696300EF
S31500004FB0765175657565416464546F5265676973AA
S31500004FC07472790078517565756547656E657269A5
S31500004FD06343726561746553746174696300FFFFAE
S31500004FE078517565756547656E6572696352657357
S31500004FF0657400FF785461736B0000002E2E2F72CB
S31500005000612F6177732F4672656552544F532F4651
S3150000501072656552544F532F536F757263652F74C3
S3150000502061736B732E6300FF75785072696F7269D6
S315000050307479203C2028352900FFFFFF70785443FF
S31500005040422D3E7563537461746963616C6C79417A
S315000050506C6C6F6361746564203D3D2028202820B8
S3150000506075696E74385F7420292032202900FFFF8D
S315000050702820282028202820707844656C617965CE
S31500005080645461736B4C69737420292D3E75784E98
S31500005090756D6265724F664974656D73203D3D207E
S315000050A028205542617365547970655F7420292004
S315000050B0302029203F20282028204261736554791A
S315000050C070655F74202920312029203A2028202865
S315000050D02042617365547970655F74202920302001
S315000050E0292029202900FFFF707578537461636BAE
S315000050F042756666657220213D202828766F6964B0
S31500005100202A29302900000070785461736B42759B
S315000051106666657220213D202828766F6964202AFC
S31500005120293029007853697A65203D3D2073697AD4
S31500005130656F6628205443425F74202900FFFFFFF5
S3150000514075785363686564756C65725375737065BD
S315000051506E646564203D3D203000FFFF49444C45A8
S31500005160000000007852657475726E20213D20287B
S31500005170202D31202900FFFF75785363686564751B
S315000051806C657253757370656E64656400FFFFFF2E
S315000051907578546F705072696F7269747900FFFF89
S315000051A070784576656E744C697374007078556EC8
S315000051B0626C6F636B656454434200FF7078546998
S315000051C06D654F757400FFFF70785469636B735497
S315000051D06F5761697400FFFF785461736B52656D98
S315000051E06F766546726F6D4576656E744C6973743D
S315000051F000FFFFFF765461736B506C6163654F6E01
S315000052004576656E744C697374526573747269631E
S3150000521074656400765461736B506C6163654F6EA0
S315000052204576656E744C69737400FFFF765461733E
S315000052306B537769746368436F6E7465787400FFA7
S31500005240785461736B496E6372656D656E745469EB
S31500005250636B00FF785461736B526573756D6541BE
S315000052606C6C00FF765461736B5374617274536394
S31500005270686564756C657200765461736B44656C21
S31500005280617900FF70727644656C657465544342BB
S3150000529000FFFFFF707276496E697469616C69730D
S315000052A0654E65775461736B00FFFFFF7854617339
S315000052B06B43726561746553746174696300FFFFC3
S315000052C0785461736B436865636B466F7254696D9E
S315000052D0654F757400FFFFFF546D725100FFFFFFAD
S315000052E028207854696D6572506572696F64496EDD
S315000052F05469636B73203E20302029002E2E2F72B6
S31500005300612F6177732F4672656552544F532F464E
S3150000531072656552544F532F536F757263652F74C0
S31500005320696D6572732E63002820707854696D6507
S31500005330722D3E7854696D6572506572696F644965
S315000053406E5469636B73203E2030202900FFFFFFF7
S31500005350546D7220537663007852657475726E00D0
S3150000536070727650726F63657373526563656976A2
S315000053706564436F6D6D616E647300FF7854696D8B
S31500005380657243726561746554696D6572546173C3
S315000053906B00FFFF380000203A73656D69686F7314
S315000053A074696E672D666561747572657300FFFFBB
S315000053B000000000000000000000000000000000E7
S315000053C000000000000000000000000000000000D7
S315000053D000000000000000000000000000000000C7
S315000053E000000000000000000000000000000000B7
S315000053F000000000000000000000000000000000A7
S315000054000000000000000000000000000000000096
S309000054100000000092
S3150000541408B10181B0B000840000000008B1018128
S30D00005424B0B000840000000096
S3150000542C14AEFF7F0100000024AEFF7FA908B180F7
S3150000543C90AEFF7F01000000F0D9FF7FB0A902807B
S3150000544C84DAFF7FB0B0A880D4DAFF7F01000000B9
S3150000545CE0DAFF7FB0B0AA8018DBFF7FAE73B280B4
S3150000546CECDBFF7F01000000E8DBFF7FAB3F388001
S3150000547C48DCFF7F0100000054DCFF7FB0B0AA803F
S3150000548C90DCFF7F0100000044DDFF7FAB0EB28095
S3150000549CB8DDFF7FB0AF088078E0FF7F0100000029
S315000054AC7CE0FF7FAD3F028028E3FF7F0100000018
S315000054BC08E5FF7FB0A8038018E5FF7F0100000018
S315000054CC14E5FF7FB0AD0480D8E7FF7F008404802D
S315000054DC00E8FF7F34FFFF7F04E8FF7F38FFFF7F84
S30D000054EC10E8FF7F010000003B
S315000054F40000000014060020300600202C060020C0
